15:29:00.524339 IP (tos 0x0, ttl 64, id 33607, offset 0, flags [none], proto UDP (17), length 63)
    520163d97023.38940 > 10.202.72.118.domain: [bad udp cksum 0x3e29 -> 0x2790!] 18410+ A? www.shiyanlou.com. (35)
	0x0000:  4500 003f 8347 0000 4011 b97a c0a8 2a04  E..?.G..@..z..*.
	0x0010:  0aca 4876 981c 0035 002b 3e29 47ea 0100  ..Hv...5.+>)G...
	0x0020:  0001 0000 0000 0000 0377 7777 0973 6869  .........www.shi
	0x0030:  7961 6e6c 6f75 0363 6f6d 0000 0100 01    yanlou.com.....
15:29:00.524780 IP (tos 0xc0, ttl 60, id 28177, offset 0, flags [none], proto UDP (17), length 492)
    10.202.72.118.domain > 520163d97023.38940: [udp sum ok] 18410 q: A? www.shiyanlou.com. 1/2/23 www.shiyanlou.com. [5h50m48s] A 115.29.233.149 ns: shiyanlou.com. [22h34m57s] NS vip2.alidns.com., shiyanlou.com. [22h34m57s] NS vip1.alidns.com. ar: vip1.alidns.com. [6m53s] A 140.205.228.51, vip1.alidns.com. [6m53s] A 140.205.228.53, vip1.alidns.com. [6m53s] A 14.1.112.11, vip1.alidns.com. [6m53s] A 14.1.112.13, vip1.alidns.com. [6m53s] A 47.88.44.151, vip1.alidns.com. [6m53s] A 106.11.30.113, vip1.alidns.com. [6m53s] A 106.11.41.151, vip1.alidns.com. [6m53s] A 116.211.173.151, vip1.alidns.com. [6m53s] A 116.211.173.153, vip1.alidns.com. [6m53s] A 121.29.51.151, vip1.alidns.com. [6m53s] A 121.29.51.153, vip1.alidns.com. [6m53s] A 140.205.81.51, vip2.alidns.com. [1d23h55m55s] A 140.205.81.52, vip2.alidns.com. [1d23h55m55s] A 140.205.228.52, vip2.alidns.com. [1d23h55m55s] A 140.205.228.54, vip2.alidns.com. [1d23h55m55s] A 14.1.112.12, vip2.alidns.com. [1d23h55m55s] A 14.1.112.14, vip2.alidns.com. [1d23h55m55s] A 47.88.44.152, vip2.alidns.com. [1d23h55m55s] A 106.11.41.152, vip2.alidns.com. [1d23h55m55s] A 116.211.173.152, vip2.alidns.com. [1d23h55m55s] A 116.211.173.154, vip2.alidns.com. [1d23h55m55s] A 121.29.51.152, vip2.alidns.com. [1d23h55m55s] A 121.29.51.154 (464)
	0x0000:  45c0 01ec 6e11 0000 3c11 d043 0aca 4876  E...n...<..C..Hv
	0x0010:  c0a8 2a04 0035 981c 01d8 e3d1 47ea 8180  ..*..5......G...
	0x0020:  0001 0001 0002 0017 0377 7777 0973 6869  .........www.shi
	0x0030:  7961 6e6c 6f75 0363 6f6d 0000 0100 01c0  yanlou.com......
	0x0040:  0c00 0100 0100 0052 3800 0473 1de9 95c0  .......R8..s....
	0x0050:  1000 0200 0100 013d 9100 0e04 7669 7032  .......=....vip2
	0x0060:  0661 6c69 646e 73c0 1ac0 1000 0200 0100  .alidns.........
	0x0070:  013d 9100 0704 7669 7031 c044 c059 0001  .=....vip1.D.Y..
	0x0080:  0001 0000 019d 0004 8ccd e433 c059 0001  ...........3.Y..
	0x0090:  0001 0000 019d 0004 8ccd e435 c059 0001  ...........5.Y..
	0x00a0:  0001 0000 019d 0004 0e01 700b c059 0001  ..........p..Y..
	0x00b0:  0001 0000 019d 0004 0e01 700d c059 0001  ..........p..Y..
	0x00c0:  0001 0000 019d 0004 2f58 2c97 c059 0001  ......../X,..Y..
	0x00d0:  0001 0000 019d 0004 6a0b 1e71 c059 0001  ........j..q.Y..
	0x00e0:  0001 0000 019d 0004 6a0b 2997 c059 0001  ........j.)..Y..
	0x00f0:  0001 0000 019d 0004 74d3 ad97 c059 0001  ........t....Y..
	0x0100:  0001 0000 019d 0004 74d3 ad99 c059 0001  ........t....Y..
	0x0110:  0001 0000 019d 0004 791d 3397 c059 0001  ........y.3..Y..
	0x0120:  0001 0000 019d 0004 791d 3399 c059 0001  ........y.3..Y..
	0x0130:  0001 0000 019d 0004 8ccd 5133 c03f 0001  ..........Q3.?..
	0x0140:  0001 0002 a20b 0004 8ccd 5134 c03f 0001  ..........Q4.?..
	0x0150:  0001 0002 a20b 0004 8ccd e434 c03f 0001  ...........4.?..
	0x0160:  0001 0002 a20b 0004 8ccd e436 c03f 0001  ...........6.?..
	0x0170:  0001 0002 a20b 0004 0e01 700c c03f 0001  ..........p..?..
	0x0180:  0001 0002 a20b 0004 0e01 700e c03f 0001  ..........p..?..
	0x0190:  0001 0002 a20b 0004 2f58 2c98 c03f 0001  ......../X,..?..
	0x01a0:  0001 0002 a20b 0004 6a0b 2998 c03f 0001  ........j.)..?..
	0x01b0:  0001 0002 a20b 0004 74d3 ad98 c03f 0001  ........t....?..
	0x01c0:  0001 0002 a20b 0004 74d3 ad9a c03f 0001  ........t....?..
	0x01d0:  0001 0002 a20b 0004 791d 3398 c03f 0001  ........y.3..?..
	0x01e0:  0001 0002 a20b 0004 791d 339a            ........y.3.
15:29:00.525111 IP (tos 0x0, ttl 64, id 33608, offset 0, flags [none], proto UDP (17), length 63)
    520163d97023.37606 > 10.202.72.118.domain: [bad udp cksum 0x3e29 -> 0x015a!] 22614+ AAAA? www.shiyanlou.com. (35)
	0x0000:  4500 003f 8348 0000 4011 b979 c0a8 2a04  E..?.H..@..y..*.
	0x0010:  0aca 4876 92e6 0035 002b 3e29 5856 0100  ..Hv...5.+>)XV..
	0x0020:  0001 0000 0000 0000 0377 7777 0973 6869  .........www.shi
	0x0030:  7961 6e6c 6f75 0363 6f6d 0000 1c00 01    yanlou.com.....
15:29:00.525446 IP (tos 0xc0, ttl 60, id 28178, offset 0, flags [none], proto UDP (17), length 130)
    10.202.72.118.domain > 520163d97023.37606: [udp sum ok] 22614 q: AAAA? www.shiyanlou.com. 0/1/0 ns: shiyanlou.com. [4m2s] SOA vip1.alidns.com. hostmaster.hichina.com. 2016111511 3600 1200 3600 360 (102)
	0x0000:  45c0 0082 6e12 0000 3c11 d1ac 0aca 4876  E...n...<.....Hv
	0x0010:  c0a8 2a04 0035 92e6 006e c416 5856 8180  ..*..5...n..XV..
	0x0020:  0001 0000 0001 0000 0377 7777 0973 6869  .........www.shi
	0x0030:  7961 6e6c 6f75 0363 6f6d 0000 1c00 01c0  yanlou.com......
	0x0040:  1000 0600 0100 0000 f200 3704 7669 7031  ..........7.vip1
	0x0050:  0661 6c69 646e 73c0 1a0a 686f 7374 6d61  .alidns...hostma
	0x0060:  7374 6572 0768 6963 6869 6e61 c01a 782b  ster.hichina..x+
	0x0070:  6b97 0000 0e10 0000 04b0 0000 0e10 0000  k...............
	0x0080:  0168                                     .h
15:29:00.525569 IP (tos 0x0, ttl 64, id 33609, offset 0, flags [none], proto UDP (17), length 63)
    520163d97023.55826 > 10.202.72.118.domain: [bad udp cksum 0x3e29 -> 0x642c!] 47959+ MX? www.shiyanlou.com. (35)
	0x0000:  4500 003f 8349 0000 4011 b978 c0a8 2a04  E..?.I..@..x..*.
	0x0010:  0aca 4876 da12 0035 002b 3e29 bb57 0100  ..Hv...5.+>).W..
	0x0020:  0001 0000 0000 0000 0377 7777 0973 6869  .........www.shi
	0x0030:  7961 6e6c 6f75 0363 6f6d 0000 0f00 01    yanlou.com.....
15:29:00.527243 IP (tos 0xc0, ttl 60, id 28179, offset 0, flags [none], proto UDP (17), length 130)
    10.202.72.118.domain > 520163d97023.55826: [udp sum ok] 47959 q: MX? www.shiyanlou.com. 0/1/0 ns: shiyanlou.com. [10m] SOA vip1.alidns.com. hostmaster.hichina.com. 2016111511 3600 1200 3600 360 (102)
	0x0000:  45c0 0082 6e13 0000 3c11 d1ab 0aca 4876  E...n...<.....Hv
	0x0010:  c0a8 2a04 0035 da12 006e c0e7 bb57 8180  ..*..5...n...W..
	0x0020:  0001 0000 0001 0000 0377 7777 0973 6869  .........www.shi
	0x0030:  7961 6e6c 6f75 0363 6f6d 0000 0f00 01c0  yanlou.com......
	0x0040:  1000 0600 0100 0002 5800 3704 7669 7031  ........X.7.vip1
	0x0050:  0661 6c69 646e 73c0 1a0a 686f 7374 6d61  .alidns...hostma
	0x0060:  7374 6572 0768 6963 6869 6e61 c01a 782b  ster.hichina..x+
	0x0070:  6b97 0000 0e10 0000 04b0 0000 0e10 0000  k...............
	0x0080:  0168                                     .h
15:29:00.659653 IP (tos 0x0, ttl 64, id 26727, offset 0, flags [DF], proto UDP (17), length 72)
    520163d97023.58809 > 10.202.72.116.domain: [bad udp cksum 0x3e30 -> 0x601a!] 26943+ PTR? 118.72.202.10.in-addr.arpa. (44)
	0x0000:  4500 0048 6867 4000 4011 9453 c0a8 2a04  E..Hhg@.@..S..*.
	0x0010:  0aca 4874 e5b9 0035 0034 3e30 693f 0100  ..Ht...5.4>0i?..
	0x0020:  0001 0000 0000 0000 0331 3138 0237 3203  .........118.72.
	0x0030:  3230 3202 3130 0769 6e2d 6164 6472 0461  202.10.in-addr.a
	0x0040:  7270 6100 000c 0001                      rpa.....
15:29:00.660058 IP (tos 0xc0, ttl 60, id 54235, offset 0, flags [none], proto UDP (17), length 122)
    10.202.72.116.domain > 520163d97023.58809: [udp sum ok] 26943 NXDomain* q: PTR? 118.72.202.10.in-addr.arpa. 0/1/0 ns: 10.IN-ADDR.ARPA. [1d] SOA 10.IN-ADDR.ARPA. . 0 28800 7200 604800 86400 (94)
	0x0000:  45c0 007a d3db 0000 3c11 6bed 0aca 4874  E..z....<.k...Ht
	0x0010:  c0a8 2a04 0035 e5b9 0066 25d1 693f 8583  ..*..5...f%.i?..
	0x0020:  0001 0000 0001 0000 0331 3138 0237 3203  .........118.72.
	0x0030:  3230 3202 3130 0769 6e2d 6164 6472 0461  202.10.in-addr.a
	0x0040:  7270 6100 000c 0001 0231 3007 494e 2d41  rpa......10.IN-A
	0x0050:  4444 5204 4152 5041 0000 0600 0100 0151  DDR.ARPA.......Q
	0x0060:  8000 17c0 2c00 0000 0000 0000 7080 0000  ....,.......p...
	0x0070:  1c20 0009 3a80 0001 5180                 ....:...Q.
15:29:01.664710 IP (tos 0x0, ttl 64, id 33645, offset 0, flags [DF], proto UDP (17), length 72)
    520163d97023.38714 > 10.202.72.118.domain: [bad udp cksum 0x3e32 -> 0x428a!] 54606+ PTR? 116.72.202.10.in-addr.arpa. (44)
	0x0000:  4500 0048 836d 4000 4011 794b c0a8 2a04  E..H.m@.@.yK..*.
	0x0010:  0aca 4876 973a 0035 0034 3e32 d54e 0100  ..Hv.:.5.4>2.N..
	0x0020:  0001 0000 0000 0000 0331 3136 0237 3203  .........116.72.
	0x0030:  3230 3202 3130 0769 6e2d 6164 6472 0461  202.10.in-addr.a
	0x0040:  7270 6100 000c 0001                      rpa.....
15:29:01.665421 IP (tos 0xc0, ttl 60, id 7152, offset 0, flags [none], proto UDP (17), length 122)
    10.202.72.118.domain > 520163d97023.38714: [udp sum ok] 54606 NXDomain* q: PTR? 116.72.202.10.in-addr.arpa. 0/1/0 ns: 10.IN-ADDR.ARPA. [1d] SOA 10.IN-ADDR.ARPA. . 0 28800 7200 604800 86400 (94)
	0x0000:  45c0 007a 1bf0 0000 3c11 23d7 0aca 4876  E..z....<.#...Hv
	0x0010:  c0a8 2a04 0035 973a 0066 0841 d54e 8583  ..*..5.:.f.A.N..
	0x0020:  0001 0000 0001 0000 0331 3136 0237 3203  .........116.72.
	0x0030:  3230 3202 3130 0769 6e2d 6164 6472 0461  202.10.in-addr.a
	0x0040:  7270 6100 000c 0001 0231 3007 494e 2d41  rpa......10.IN-A
	0x0050:  4444 5204 4152 5041 0000 0600 0100 0151  DDR.ARPA.......Q
	0x0060:  8000 17c0 2c00 0000 0000 0000 7080 0000  ....,.......p...
	0x0070:  1c20 0009 3a80 0001 5180                 ....:...Q.

15:36:30.644280 IP (tos 0x0, ttl 64, id 34024, offset 0, flags [none], proto UDP (17), length 64)
    520163d97023.33581 > 10.202.72.118.domain: [bad udp cksum 0x3e2a -> 0xa1be!] 45750+ A? 202.206.64.204/res. (36)
	0x0000:  4500 0040 84e8 0000 4011 b7d8 c0a8 2a04  E..@....@.....*.
	0x0010:  0aca 4876 832d 0035 002c 3e2a b2b6 0100  ..Hv.-.5.,>*....
	0x0020:  0001 0000 0000 0000 0332 3032 0332 3036  .........202.206
	0x0030:  0236 3407 3230 342f 7265 7300 0001 0001  .64.204/res.....
15:36:30.644648 IP (tos 0xc0, ttl 60, id 7154, offset 0, flags [none], proto UDP (17), length 139)
    10.202.72.118.domain > 520163d97023.33581: [udp sum ok] 45750 NXDomain q: A? 202.206.64.204/res. 0/1/0 ns: . [2h59m33s] SOA a.root-servers.net. nstld.verisign-grs.com. 2017080500 1800 900 604800 86400 (111)
	0x0000:  45c0 008b 1bf2 0000 3c11 23c4 0aca 4876  E.......<.#...Hv
	0x0010:  c0a8 2a04 0035 832d 0077 fa60 b2b6 8183  ..*..5.-.w.`....
	0x0020:  0001 0000 0001 0000 0332 3032 0332 3036  .........202.206
	0x0030:  0236 3407 3230 342f 7265 7300 0001 0001  .64.204/res.....
	0x0040:  0000 0600 0100 002a 1500 4001 610c 726f  .......*..@.a.ro
	0x0050:  6f74 2d73 6572 7665 7273 036e 6574 0005  ot-servers.net..
	0x0060:  6e73 746c 640c 7665 7269 7369 676e 2d67  nstld.verisign-g
	0x0070:  7273 0363 6f6d 0078 3a34 b400 0007 0800  rs.com.x:4......
	0x0080:  0003 8400 093a 8000 0151 80              .....:...Q.
15:36:31.432478 IP (tos 0x0, ttl 64, id 43391, offset 0, flags [DF], proto UDP (17), length 72)
    520163d97023.52886 > 10.202.72.116.domain: [bad udp cksum 0x3e30 -> 0x7433!] 27721+ PTR? 118.72.202.10.in-addr.arpa. (44)
	0x0000:  4500 0048 a97f 4000 4011 533b c0a8 2a04  E..H..@.@.S;..*.
	0x0010:  0aca 4874 ce96 0035 0034 3e30 6c49 0100  ..Ht...5.4>0lI..
	0x0020:  0001 0000 0000 0000 0331 3138 0237 3203  .........118.72.
	0x0030:  3230 3202 3130 0769 6e2d 6164 6472 0461  202.10.in-addr.a
	0x0040:  7270 6100 000c 0001                      rpa.....
15:36:31.436198 IP (tos 0xc0, ttl 60, id 58945, offset 0, flags [none], proto UDP (17), length 122)
    10.202.72.116.domain > 520163d97023.52886: [udp sum ok] 27721 NXDomain* q: PTR? 118.72.202.10.in-addr.arpa. 0/1/0 ns: 10.IN-ADDR.ARPA. [1d] SOA 10.IN-ADDR.ARPA. . 0 28800 7200 604800 86400 (94)
	0x0000:  45c0 007a e641 0000 3c11 5987 0aca 4874  E..z.A..<.Y...Ht
	0x0010:  c0a8 2a04 0035 ce96 0066 39ea 6c49 8583  ..*..5...f9.lI..
	0x0020:  0001 0000 0001 0000 0331 3138 0237 3203  .........118.72.
	0x0030:  3230 3202 3130 0769 6e2d 6164 6472 0461  202.10.in-addr.a
	0x0040:  7270 6100 000c 0001 0231 3007 494e 2d41  rpa......10.IN-A
	0x0050:  4444 5204 4152 5041 0000 0600 0100 0151  DDR.ARPA.......Q
	0x0060:  8000 17c0 2c00 0000 0000 0000 7080 0000  ....,.......p...
	0x0070:  1c20 0009 3a80 0001 5180                 ....:...Q.
15:36:32.436956 IP (tos 0x0, ttl 64, id 34079, offset 0, flags [DF], proto UDP (17), length 72)
    520163d97023.34640 > 10.202.72.118.domain: [bad udp cksum 0x3e32 -> 0x3604!] 61886+ PTR? 116.72.202.10.in-addr.arpa. (44)
	0x0000:  4500 0048 851f 4000 4011 7799 c0a8 2a04  E..H..@.@.w...*.
	0x0010:  0aca 4876 8750 0035 0034 3e32 f1be 0100  ..Hv.P.5.4>2....
	0x0020:  0001 0000 0000 0000 0331 3136 0237 3203  .........116.72.
	0x0030:  3230 3202 3130 0769 6e2d 6164 6472 0461  202.10.in-addr.a
	0x0040:  7270 6100 000c 0001                      rpa.....
15:36:32.437213 IP (tos 0xc0, ttl 60, id 34079, offset 0, flags [DF], proto UDP (17), length 122)
    10.202.72.118.domain > 520163d97023.34640: [udp sum ok] 61886 NXDomain* q: PTR? 116.72.202.10.in-addr.arpa. 0/1/0 ns: 10.IN-ADDR.ARPA. [1d] SOA 10.IN-ADDR.ARPA. . 0 28800 7200 604800 86400 (94)
	0x0000:  45c0 007a 851f 4000 3c11 7aa7 0aca 4876  E..z..@.<.z...Hv
	0x0010:  c0a8 2a04 0035 8750 0066 fbba f1be 8583  ..*..5.P.f......
	0x0020:  0001 0000 0001 0000 0331 3136 0237 3203  .........116.72.
	0x0030:  3230 3202 3130 0769 6e2d 6164 6472 0461  202.10.in-addr.a
	0x0040:  7270 6100 000c 0001 0231 3007 494e 2d41  rpa......10.IN-A
	0x0050:  4444 5204 4152 5041 0000 0600 0100 0151  DDR.ARPA.......Q
	0x0060:  8000 17c0 2c00 0000 0000 0000 7080 0000  ....,.......p...
	0x0070:  1c20 0009 3a80 0001 5180                 ....:...Q.
15:36:32.437314 IP (tos 0xc0, ttl 60, id 28180, offset 0, flags [none], proto UDP (17), length 122)
    10.202.72.118.domain > 520163d97023.34640: [udp sum ok] 61886 NXDomain* q: PTR? 116.72.202.10.in-addr.arpa. 0/1/0 ns: 10.IN-ADDR.ARPA. [1d] SOA 10.IN-ADDR.ARPA. . 0 28800 7200 604800 86400 (94)
	0x0000:  45c0 007a 6e14 0000 3c11 d1b2 0aca 4876  E..zn...<.....Hv
	0x0010:  c0a8 2a04 0035 8750 0066 fbba f1be 8583  ..*..5.P.f......
	0x0020:  0001 0000 0001 0000 0331 3136 0237 3203  .........116.72.
	0x0030:  3230 3202 3130 0769 6e2d 6164 6472 0461  202.10.in-addr.a
	0x0040:  7270 6100 000c 0001 0231 3007 494e 2d41  rpa......10.IN-A
	0x0050:  4444 5204 4152 5041 0000 0600 0100 0151  DDR.ARPA.......Q
	0x0060:  8000 17c0 2c00 0000 0000 0000 7080 0000  ....,.......p...
	0x0070:  1c20 0009 3a80 0001 5180                 ....:...Q.

